:2000000075D40075D30178401200A078301200A075300175D40075D3017F03782879277A16
:20002000081200E2DFF575D40075D30075D40175D300782079107B08120083784079307BB8
:200040000812006E75D40175D301782779177A081200BCEC60D674402403F8E624F0F675AC
:20006000D40075D3017840792012009780FEC3E637D4F6C394105004C302007EF6D3080969
:20008000DBED22C3E6974004F6020092240AF60200920809DBEE227A09E6F70809DAFA224D
:2000A000E8F97A09770009DAFB22E8F97A08E71A09BA00037C012260F57C0022E6C3974029
:2000C0000970161819DAF50200D975D40175D300E889F0A8F0F97C012275D40175D3007C85
:0B00E0000022E7F61819DAFA76002279
:00000001FF
