:200000007581307810D2D575D40075D3007590F030941D30951530960D3097051200E38036
:20002000EC7C010200357C020200357C030200357C0402003575900F30902D30911F30925B
:200040001130930302000D12010E3093FA7D0102007312010E3092FA7D0202007312010EF7
:200060003091FA7D0302007312010E3090FA7D0402007330D50778101200D9C2D5ED147573
:20008000F004A42C149000C993B40F0302013FC3B40911C0E012011BD0E0F608B819277817
:2000A000100200C640EDC3940AC0E075D40075D3017810792012013675D40075D300781025
:2000C0001200D90200C602000D0102030A0405060B0708090C0E000F0DE8F97A09771009F2
:2000E000DAFB2279107B007A0990018DE793F5809001A6EB93F5A0090BDA01221201010105
:20010000E97D147E0A7F05DFFEDEFADDF6227D147E147F0ADFFEDEFADDF62275D40075D3C8
:200120000178187917E7F61819B90FF975101075D40075D300227A09E6F70809DAFA22D050
:20014000E02325E09001487302014D80FE75D40175D300782079107B08C3B810027400E660
:20016000B91002340037D4F6C394105004C3020173F6D30809DBE375D40075D30178207950
:200180001012013675D40075D300020005287EA2627461217A20603025A926A1B1FFFEFD64
:1E01A000FBF7EFDFBF7F7FBFDFEFF7FBFDFE085E82425441015A00401005890681913A
:00000001FF
