:2000000078201200917590F030941D30951530960D30970512009B80EC7C0112002D7C0203
:2000200012002D7C0312002D7C0412002D75900F30902D30911F3092113093030200051271
:2000400000C63093FA7D0102006B1200C63092FA7D0202006B1200C63091FA7D0302006B32
:200060001200C63090FA7D0402006BED1475F004A42C1490008193F608B82889782002000D
:20008000050102030A0405060B0708090C0E000F0D79207A08770009DAFB2279207B007AC3
:2000A000099000D3E793F5809000EBEB93F5A0090BDA01221200B901A17D147E0A7F05DF5D
:2000C000FEDEFADDF6227D147E147F0ADFFEDEFADDF622287EA2627461217A20603025A967
:2000E00026A1B1FEFDFBF7EFDFBF7F7FBFDFEFF7FBFDFE085E82425441015A00401005899E
:03010000068191E4
:00000001FF
