:2000000075A80075813078101200F678201200F6D2D575D40075D3007590F030941D30959A
:200020001530960D30970512010080EC7C010200407C020200407C030200407C040200408B
:2000400075900F30902D30911F30921130930302001812016B3093FA7D0102007E12016B55
:200060003092FA7D0202007E12016B3091FA7D0302007E12016B3090FA7D0402007E30D54E
:200080000778101200F6C2D5ED1475F004A42C149000E693B40F0302018AC3B40923C0E045
:2000A00075D40075D301781879177A0812017875D40075D300D0E0F608B8192778100200C0
:2000C000E340DBC3940AC0E075D40075D3017810792012018175D40075D30078101200F6B9
:2000E0000200E30200180102030A0405060B0708090C0E000F0DE8F97A09770009DAFB22AE
:2001000079177B007A09C2D190033AE76022B4EF09B4111493F5B002013E40F5C394F0907E
:20012000035C93F5B002013E93F5B0D2D102013E20D10675B0FF02013E740093F5B0900330
:200140004CEB93F5A0190BDA1030D1012290033A740093F5B012015E2212015E21087D14D7
:200160007E0A7F05DFFEDEFADDF6227D147E147F0ADFFEDEFADDF622E7F61819DAFA76001B
:20018000227A09E6F70809DAFA22D0E0FF232F900193730201A10201D502022202028F8089
:2001A000FE75D40175D300782079107B081201C075D40075D30178207910120181020010DF
:2001C000C3E637D4F6C394105004C30201D0F6D30809DBED2275D40175D300782079107B32
:2001E0000875D40175D301782779177A081202FE12020EEC6002701075D40075D301782087
:200200007910120181020010751711020010C3E6974004F602021D240AF602021D0809DB34
:20022000EE2275D40175D300782079107B0875D40075D301781079401201817820791012DE
:20024000018178501200F675500175D40175D300784079507B0812020E75D40175D30078C4
:200260004079507B0812020E782079107B081201C075D40075D3017840120328EC60DA7537
:20028000D40075D3017820791012018102001075D40075D30178401200F678501200F675E3
:2002A000500175D40075D3017F03782879277A08120178DFF575D40075D30075D40175D395
:2002C00000782079107B0812020E784079507B081201C075D40175D301782779177A08122B
:2002E00002FEEC60D674402403F8E624F0F675D40075D30178407910120181020010E6C3F7
:2003000097400970161819DAF502031B75D40175D300E889F0A8F0F97C012275D40175D3A2
:2003200000782079107C0022E8F97A08E71A09BA00037C012260F57C0022287EA2627461C3
:20034000217A20603025A926A1B1FFF7FEFDFBF7EFDFBF7F7FBFDFEFF7FBFDFE085E8242FA
:0C0360005441015A0040100589068191AB
:00000001FF
