:20000000782075D40075D30012009D7590F030941D30951530960D3097051200A780EC7C18
:20002000011200337C021200337C031200337C0412003375900F30902D30911F309211304A
:20004000930302000B1200D23093FA7D010200711200D23092FA7D020200711200D2309134
:20006000FA7D030200711200D23090FA7D04020071ED1475F004A42C1490008D93F60812F3
:2000800000DFB82986782012009D02000B0102030A0405060B0708090C0E000F0D79207A3B
:2000A00009771009DAFB2279217B007A099000F7E793F580900110EB93F5A0090BDA0122DD
:2000C0001200C501AD7D147E0A7F05DFFEDEFADDF6227D147E147F0ADFFEDEFADDF6227589
:2000E000D40075D30178287927E7F61819B91FF975D40075D30022287EA2627461217A20D7
:20010000603025A926A1B1FFFEFDFBF7EFDFBF7F7FBFDFEFF7FBFDFE085E82425441015AFE
:080120000040100589068191E1
:00000001FF
