:20000000758130781075D40075D3001200B87590F030941D30951530960D3097051200CBAB
:2000200080EC7C010200367C020200367C030200367C0402003675900F30902D30911F3069
:20004000921130930302000E1200F63093FA7D010200741200F63092FA7D020200741200A3
:20006000F63091FA7D030200741200F63090FA7D04020074ED1475F004A42C149000A2930D
:20008000C3B40911C0E0120103D0E0F608B8190F781002009F40EDC39409C0E002009F0292
:2000A000000E0102030A0405060B0708090C0E000F0D02011E0200B5E8F97A09771009DA14
:2000C000FB79107A09771009DAFB2279107B007A09900145E793F58090015EEB93F5A0093B
:2000E0000BDA01221200E901D17D147E0A7F05DFFEDEFADDF6227D147E147F0ADFFEDEFA83
:20010000DDF62275D40075D30178187917E7F61819B90FF975101075D40075D3002275D4D8
:200120000075D301781079207B08C3E637D4F6C394105004C312013AF6D30809DBED75D472
:200140000075D30022287EA2627461217A20603025A926A1B1FFFEFDFBF7EFDFBF7F7FBFEF
:16016000DFEFF7FBFDFE085E82425441015A0040100589068191BE
:00000001FF
