:2000000075813078101200DCD2D575D40075D3007590F030941D30951530960D30970512AB
:2000200000E680EC7C010200387C020200387C030200387C0402003875900F30902D3091CA
:200040001F30921130930302001012012D3093FA7D0102007612012D3092FA7D02020076F0
:2000600012012D3091FA7D0302007612012D3090FA7D0402007630D50778101200DCC2D581
:20008000ED1475F004A42C149000CC93B40F0302015EC3B40911C0E012013AD0E0F608B818
:2000A000192778100200C940EDC3940AC0E075D40075D3017810792012015575D40075D3D3
:2000C0000078101200DC0200C90200100102030A0405060B0708090C0E000F0DE8F97A09F1
:2000E000770009DAFB2279107B007A09C2D19001A2E7600893F580D2D102010F30D10B091B
:20010000E71970067580FF02010F740093F5809001BBEB93F5A0090BDA012212012001EE55
:200120007D147E0A7F05DFFEDEFADDF6227D147E147F0ADFFEDEFADDF62275D40075D30190
:2001400078187917E7F61819B90FF975101075D40075D300227A09E6F70809DAFA22D0E051
:200160002325E09001677302016C80FE75D40175D300782079107B08C3E637D4F6C39410B8
:200180005004C3020188F6D30809DBED75D40075D3017820791012015575D40075D300026D
:2001A0000008287EA2627461217A20603025A926A1B1FFFEFDFBF7EFDFBF7F7FBFDFEFF72C
:1301C000FBFDFE085E82425441015A004010058906819126
:00000001FF
