:2000000075A80075813078101200F678201200F6D2D575D40075D3007590F030941D30959A
:200020001530960D30970512010080EC7C010200407C020200407C030200407C040200408B
:2000400075900F30902D30911F30921130930302001812016D3093FA7D0102007E12016D51
:200060003092FA7D0202007E12016D3091FA7D0302007E12016D3090FA7D0402007E30D54A
:200080000778101200F6C2D5ED1475F004A42C149000E693B40F0302018CC3B40923C0E043
:2000A00075D40075D301781879177A0812017A75D40075D300D0E0F608B8192778100200BE
:2000C000E340DBC3940AC0E075D40075D3017810792012018375D40075D30078101200F6B7
:2000E0000200E30200180102030A0405060B0708090C0E000F0DE8F97A09770009DAFB22AE
:2001000079177B007A08C2D1900244E76022B4EF09B4111493F5B002013E40F5C394F09076
:20012000026693F5B002013E93F5B0D2D102013E20D10675B0FF02013E740093F5B0900228
:2001400056EB93F5A0190BDA1230D1022108900244740093F5B01201602108120160210840
:200160007D147E0A7F05DFFEDEFADDF6227D147E147F0ADFFEDEFADDF622E7F61819DAFA00
:200180007900227A09E6F70809DAFA22D0E0FF232F9001957302019D0201D180FE75D40187
:2001A00075D300782079107B081201BC75D40075D30178207910120183020010C3E637D475
:2001C000F6C394105004C30201CCF6D30809DBED2275D40175D300782079107B0875D40198
:2001E00075D301782779177A0812021E12020AEC6002701075D40075D30178207910120121
:2002000083020010751711020010C3E6974004F6020219240AF60202190809DBEE22E6C31D
:2002200097400970161819DAF502023B75D40175D300E889F0A8F0F97C012275D40175D364
:20024000007C0022287EA2627461217A20603025A926A1B1FFF7FEFDFBF7EFDFBF7F7FBFC3
:16026000DFEFF7FBFDFE085E82425441015A0040100589068191BD
:00000001FF
