:20000000782075D40075D30012009A7590F030941D30951530960D3097051200AD80EC7C15
:20002000010200337C020200337C030200337C0402003375900F30902D30911F309211308A
:20004000930302000B1200D83093FA7D010200711200D83092FA7D020200711200D8309122
:20006000FA7D030200711200D83090FA7D04020071ED1475F004A42C1490008A93F60812F0
:2000800000E5B82986782002000B0102030A0405060B0708090C0E000F0D79207A09771054
:2000A00009DAFB79107A09771009DAFB2279217B007A09900124E793F58090013DEB93F552
:2000C000A0090BDA01221200CB01B37D147E0A7F05DFFEDEFADDF6227D147E147F0ADFFE0E
:2000E000DEFADDF62275D40075D30178287927E7F61819B91FF975D40075D3002275D40086
:2001000075D301781079207B08C3E637D4F6C394105004C3120119F6D30809DBED75D400B3
:2001200075D30022287EA2627461217A20603025A926A1B1FFFEFDFBF7EFDFBF7F7FBFDF30
:15014000EFF7FBFDFE085E82425441015A0040100589068191BE
:00000001FF
