:2000000075A80075813078101200F678201200F6D2D575D40075D3007590F030941D30959A
:200020001530960D30970512010080EC7C010200407C020200407C030200407C040200408B
:2000400075900F30902D30911F30921130930302001812016D3093FA7D0102007E12016D51
:200060003092FA7D0202007E12016D3091FA7D0302007E12016D3090FA7D0402007E30D54A
:200080000778101200F6C2D5ED1475F004A42C149000E693B40F0302018CC3B40923C0E043
:2000A00075D40075D301781879177A0812017A75D40075D300D0E0F608B8192778100200BE
:2000C000E340DBC3940AC0E075D40075D3017810792012018375D40075D30078101200F6B7
:2000E0000200E30200180102030A0405060B0708090C0E000F0DE8F97A09770009DAFB22AE
:2001000079177B007A09C2D190033CE76024B4EF09B4111693F5B002014040F5D2D1C39453
:20012000F090035E93F5B002014093F5B0D2D102014020D10675B0FF020140740093F5B03B
:2001400090034EEB93F5A0190BDA1030D1012290033C740093F5B0120160221201602108CD
:200160007D147E0A7F05DFFEDEFADDF6227D147E147F0ADFFEDEFADDF622E7F61819DAFA00
:200180007600227A09E6F70809DAFA22D0E0FF232F900195730201A30201D702022402021A
:2001A0009180FE75D40175D300782079107B081201C275D40075D3017820791012018302DA
:2001C0000010C3E637D4F6C394105004C30201D2F6D30809DBED2275D40175D300782079AB
:2001E000107B0875D40175D301782779177A08120300120210EC6002701075D40075D3018F
:2002000078207910120183020010751711020010C3E6974004F602021F240AF602021F087A
:2002200009DBEE2275D40175D300782079107B0875D40075D301781079401201837820791A
:200240001012018378501200F675500175D40175D300784079507B0812021075D40175D316
:2002600000784079507B08120210782079107B081201C275D40075D301784012032AEC6008
:20028000DA75D40075D3017820791012018302001075D40075D30178401200F678501200FD
:2002A000F675500175D40075D3017F03782879277A0812017ADFF575D40075D30075D40170
:2002C00075D300782079107B08120210784079507B081201C275D40175D301782779177AF9
:2002E00008120300EC60D674402403F8E624F0F675D40075D3017840791012018302001081
:20030000E6C397400970161819DAF502031D75D40175D300E889F0A8F0F97C012275D4013F
:2003200075D300782079107C0022E8F97A08E71A09BA00037C012260F57C0022287EA26250
:200340007461217A20603025A926A1B1FFF7FEFDFBF7EFDFBF7F7FBFDFEFF7FBFDFE085EE9
:0E03600082425441015A0040100589068191E5
:00000001FF
