:2000000075A80075813078101201077820120107D2D575D40075D3007590F030941D309576
:200020001530960D30970512011180EC7C010200407C020200407C030200407C040200407A
:2000400075900F30902D30911F30921130930302001812017E3093FA7D0102007E12017E2F
:200060003092FA7D0202007E12017E3091FA7D0302007E12017E3090FA7D0402007E30D528
:20008000077810120107C2D5ED1475F004A42C149000F793B40E0E75D40075D300781012BD
:2000A00001070200F4B40F0302019DC3B40923C0E075D40075D301781879177A0812018BC7
:2000C00075D40075D300D0E0F608B8192778100200F440DBC3940AC0E075D40075D3017845
:2000E00010792012019475D40075D30078101201070200F40200180102030A0405060B073C
:2001000008090C0E000F0DE8F97A09770009DAFB2279177B007A09C2D190034DE76024B49D
:20012000EF09B4111693F5B002015140F5D2D1C394F090036F93F5B002015193F5B0D2D1D8
:2001400002015120D10675B0FF020151740093F5B090035FEB93F5A0190BDA1030D10122F9
:2001600090034D740093F5B01201712212017121197D147E0A7F05DFFEDEFADDF6227D14B7
:200180007E147F0ADFFEDEFADDF622E7F61819DAFA7600227A09E6F70809DAFA22D0E0FF0A
:2001A000232F9001A6730201B40201E80202350202A280FE75D40175D300782079107B080E
:2001C0001201D375D40075D30178207910120194020010C3E637D4F6C394105004C30201A2
:2001E000E3F6D30809DBED2275D40175D300782079107B0875D40175D301782779177A08DE
:20020000120311120221EC6002701075D40075D301782079101201940200107517110200AA
:2002200010C3E6974004F6020230240AF60202300809DBEE2275D40175D300782079107B7E
:200240000875D40075D3017810794012019478207910120194785012010775500175D40162
:2002600075D300784079507B0812022175D40175D300784079507B08120221782079107B96
:20028000081201D375D40075D301784012033BEC60DA75D40075D301782079101201940254
:2002A000001075D40075D3017840120107785012010775500175D40075D3017F02782879F6
:2002C000277A0812018BDFF575D40075D30075D40175D300782079107B08120221784079D6
:2002E000507B081201D375D40175D301782779177A08120311EC60D674402402F8E624F0ED
:20030000F675D40075D30178407910120194020010E6C397400970161819DAF502032E75A4
:20032000D40175D300E889F0A8F0F97C012275D40175D300782079107C0022E8F97A08E774
:200340001A09BA00037C012260F57C0022287EA2627461217A20603025A926A1B1FFF7FE27
:1F036000FDFBF7EFDFBF7F7FBFDFEFF7FBFDFE085E82425441015A00401005890681917A
:00000001FF
